{
  "transactions": [
    {
      "hash": "0x9d88296ffaf000743cff94611cf40b2302f9295b1e9e102cc572c9df0ffa6dd8",
      "transactionType": "CALL",
      "contractName": null,
      "contractAddress": "0xa2225d1825ec6e8ba2aaaf9df3106d0543ae7aa6",
      "function": "transfer(address,uint256)",
      "arguments": [
        "0xa557eF844972c8BDf16Ca15eF444CBFf9384bfe1",
        "10000000000000000000000"
      ],
      "transaction": {
        "from": "0xa557ef844972c8bdf16ca15ef444cbff9384bfe1",
        "to": "0xa2225d1825ec6e8ba2aaaf9df3106d0543ae7aa6",
        "gas": "0x919d",
        "value": "0x0",
        "input": "0xa9059cbb000000000000000000000000a557ef844972c8bdf16ca15ef444cbff9384bfe100000000000000000000000000000000000000000000021e19e0c9bab2400000",
        "nonce": "0x2",
        "chainId": "0x13882"
      },
      "additionalContracts": [],
      "isFixedGasLimit": false
    }
  ],
  "receipts": [
    {
      "status": "0x1",
      "cumulativeGasUsed": "0x1f17d",
      "logs": [
        {
          "address": "0xa2225d1825ec6e8ba2aaaf9df3106d0543ae7aa6",
          "topics": [
            "0xddf252ad1be2c89b69c2b068fc378daa952ba7f163c4a11628f55a4df523b3ef",
            "0x000000000000000000000000a557ef844972c8bdf16ca15ef444cbff9384bfe1",
            "0x000000000000000000000000a557ef844972c8bdf16ca15ef444cbff9384bfe1"
          ],
          "data": "0x00000000000000000000000000000000000000000000021e19e0c9bab2400000",
          "blockHash": "0xd6880a6b073223183eebecc77c47fca63508ca5751cae619540100b86fc60a4a",
          "blockNumber": "0x18d0290",
          "transactionHash": "0x9d88296ffaf000743cff94611cf40b2302f9295b1e9e102cc572c9df0ffa6dd8",
          "transactionIndex": "0x1",
          "logIndex": "0x3",
          "removed": false
        },
        {
          "address": "0x0000000000000000000000000000000000001010",
          "topics": [
            "0x4dfe1bbbcf077ddc3e01291eea2d5c70c2b422b415d95645b9adcfd678cb1d63",
            "0x0000000000000000000000000000000000000000000000000000000000001010",
            "0x000000000000000000000000a557ef844972c8bdf16ca15ef444cbff9384bfe1",
            "0x0000000000000000000000004ca9ff871c7aa1e7b64e1eae110835f68d6a0bd4"
          ],
          "data": "0x0000000000000000000000000000000000000000000000000006c8d3d624b0c500000000000000000000000000000000000000000000000000c5d74cf8fe2b8a0000000000000000000000000000000000000000000000c6d131f55ddd2826be00000000000000000000000000000000000000000000000000bf0e7922d97ac50000000000000000000000000000000000000000000000c6d138be31b34cd783",
          "blockHash": "0xd6880a6b073223183eebecc77c47fca63508ca5751cae619540100b86fc60a4a",
          "blockNumber": "0x18d0290",
          "transactionHash": "0x9d88296ffaf000743cff94611cf40b2302f9295b1e9e102cc572c9df0ffa6dd8",
          "transactionIndex": "0x1",
          "logIndex": "0x4",
          "removed": false
        }
      ],
      "logsBloom": "0x00000000000000000000000000000000000000000000000000000000000000000000000000000001000000000002000020008000000000000000000000000000000000000000000000000008000000800000000000000000000100000000000000000000000000000000000000000000400000000000000080000010000000000000000000200000000000000000000000008000000000000000000000000000200000000000040000000000000000000000000000000000000000000000004000000002000000000001000000000000000000000000200000100000000000000000000000000000000000000000000000000000000000000000000000100010",
      "type": "0x2",
      "transactionHash": "0x9d88296ffaf000743cff94611cf40b2302f9295b1e9e102cc572c9df0ffa6dd8",
      "transactionIndex": "0x1",
      "blockHash": "0xd6880a6b073223183eebecc77c47fca63508ca5751cae619540100b86fc60a4a",
      "blockNumber": "0x18d0290",
      "gasUsed": "0x696d",
      "effectiveGasPrice": "0x107972e5f8",
      "from": "0xa557ef844972c8bdf16ca15ef444cbff9384bfe1",
      "to": "0xa2225d1825ec6e8ba2aaaf9df3106d0543ae7aa6",
      "contractAddress": null
    }
  ],
  "libraries": [],
  "pending": [],
  "returns": {},
  "timestamp": 1757041254674,
  "chain": 80002,
  "commit": "d0ce105"
}